:100000000C943A000C9457000C9457000C94570031
:100010000C9457000C9457000C9457000C94570004
:100020000C9457000C9457000C9457000C945700F4
:100030000C9457000C9457000C9457000C945700E4
:100040000C9457000C9457000C9457000C945700D4
:100050000C9457000C9457000C9457000C945700C4
:100060000C9457000C9457000C9457000C945700B4
:100070000C94570011241FBECFEFD4E0DEBFCDBFDC
:1000800013E0A0E0B1E0EAE5F0E102C005900D92D6
:10009000A631B107D9F723E0A6E1B3E001C01D9274
:1000A000AF32B207E1F70E9425070C942B080C949D
:1000B0000000CF93DF9300D0CDB7DEB789831A82DB
:1000C000CE0101960E942D060F900F90DF91CF91E7
:1000D0000895CF93DF93EC0180E090E00E94420608
:1000E00041E060E070E0CE010E94CD050E946F0407
:1000F0000E9451060E94A00380E00E946E038823A4
:10010000A9F3DF91CF910895CF93DF93EC0181E0C4
:1001100090E00E944206CE010E942D060E945106E8
:10012000DF91CF910C94310561E096E00E948E043E
:100130000C945106CF93DF93EA016817E9F08335F9
:1001400029F46235E1F06035F9F40EC0823529F406
:100150006035A9F06335C1F407C08035A9F4623574
:1001600019F0633589F40BC081EE92E00E9484009F
:1001700021960E94310508C088EE92E002C08DEE03
:1001800092E00E948400F5CFCE01DF91CF910895D7
:10019000FF920F931F93CF93DF9300D01F92CDB7A1
:1001A000DEB720913201309133014091340129832F
:1001B0003A834B838033B1F500E010E00E94510692
:1001C0000E94A00383E00E946E03882341F0011582
:1001D000110519F00150110902C002E010E081E0A0
:1001E0000E946E03882341F00230110519F00F5F61
:1001F0001F4F02C000E010E0E1E0F0E0EC0FFD1F57
:10020000E00FF11FF0808F2D0E94590084E00E94C2
:100210006E03882399F261E080E00E941A070E9431
:10022000310501C0F82E8F2D0F900F900F90DF91A8
:10023000CF911F910F91FF9008950C9458020C9448
:1002400079020C945E020C9464020C946A020E947F
:100250006A020E9464028823E1F38CE291E0019734
:10026000F1F70E94580281110C941F0108950C941B
:100270008002CF93DF9300D01F92CDB7DEB780917D
:10028000B7029091B802A091B90289839A83AB8397
:10029000509A589A0E942B028FE690E00E94C20169
:1002A00081E090E00E941A0261E070E081E090E05D
:1002B0000E9406020E94F201CE0101960E944002B5
:1002C0000F900F900F90DF91CF910895CF93DF9310
:1002D000DC01FB0160E070E080E0C1E0D0E0841769
:1002E000C9F09191BE01092E02C0660F771F0A94D2
:1002F000E2F76F5F7F4F769567956A0F7B1F02C0AD
:10030000769567959A95E2F76F3F710519F010F0B1
:100310008F5FE5CFF9016083DF91CF910895E1E62A
:10032000F0E080E880831082A89584B7877F84BF3F
:10033000E0E6F0E080818861808310820895109269
:10034000800084E0809381001092850010928400E8
:10035000089580918400909185000895AC0180916A
:100360008400909185009C01241B350B283E33406E
:10037000B0F708952091840030918500820F931F7B
:100380000C94AE01CF93DF931F92CDB7DEB79E01E1
:100390002F5F3F4F45E06AEB72E00E94660191E0FB
:1003A000980F909300019981915097BD18BC95B515
:1003B000977039F095B5209100012770987F922BA6
:1003C00095BD298130E0E82FF0E0E654FD4FC901EA
:1003D000008002C0880F991F0A94E2F70F90DF9106
:1003E000CF91089585B3897F85BB85B59091000134
:1003F0009770887F892B85BD089585B5887F85BDD9
:10040000089585B382FB882780F90895009719F035
:10041000019741F0089584B58F736295660F660F5A
:10042000607C05C084B563706295607F8F7C682BAB
:1004300064BD0895009741F0019759F484B58E7F0B
:1004400084BD84B5826002C084B58C7F84BD81E0A8
:10045000089580E0089514BC15BC16BC18BC84B582
:100460008E7F84BD84B5826084BD81E008959C0147
:10047000215031093093CD0081508093CC000895F4
:10048000CF93DF93EC01888199810E9437028A81A2
:100490009BEF980F943008F088E098E19093C900A2
:1004A0008550880F8093CA0081E0DF91CF91089535
:1004B0008091C800881F8827881F08958091C800F0
:1004C00085FB882780F908958091C80086FB8827DE
:1004D00080F90895CF93C82F0E945E028823E1F32C
:1004E0008091C80080648093C800C093CE00CF91F3
:1004F00008958091C80087FFFCCF8091CE000895B9
:10050000CF93DF93EC018991882319F00E946A024E
:10051000FACFDF91CF910895853098F4673088F451
:1005200021E030E001C0220F6A95EAF7E82FF0E001
:10053000E95EFC4F922F9095808189234111822B97
:1005400080830895853080F4673070F421E030E0D6
:1005500001C0220F6A95EAF7E82FF0E0E95EFC4F50
:100560008081282381E009F480E0089560911603DA
:10057000E62FF0E0E95EFC4F80810E940403809149
:1005800016038F5F853018F4809316030895109238
:1005900016030895E7E1F3E01082118212821382BC
:1005A000148208950E94E2020C94CA029C01FC018C
:1005B000FF2784A1832B84A395A1892F832B85A357
:1005C00081E00895CF93DF93C9ECD2E089919991AE
:1005D0000E94D60282E0C73DD807C1F783E090E4CD
:1005E0000E94D60280E090E80E94D60283E090E16B
:1005F0000E94D60283E090E80E94D60283E090E257
:10060000DF91CF910C94D602E0911C03F0E0EE0F45
:10061000FF1FE154FD4F20813181F901FF2795A192
:10062000932B95A3E9ECF2E097E020813181D90189
:10063000BB2795962C91959780FF03C03095232377
:1006400001C0232B95962C9386959150329691114B
:10065000ECCFE62FF0E0EE0FFF1FE154FD4F80815D
:100660009181FC01FF2785A19095892385A3609343
:100670001C0308956230710519F170F46130710541
:1006800059F5FC01FF2724A1392F3095922F932390
:1006900094A385A183231DC06330710541F06430AC
:1006A0007105D1F4FC01FF2784A1892B0FC0FC0147
:1006B000FF2784A1892B84A385A19095892309C054
:1006C000FC01FF2784A1292F2095822384A385A1E3
:1006D000892B85A381E0089580E00895E82FF0E05C
:1006E000EE0FFF1FE35EFC4F8081882321F0918194
:1006F00081E0892702C080E090E081700895E82FB2
:10070000F0E0EE0FFF1FE35EFC4F8081811102C01D
:10071000818102C080E090E081700895E82FF0E0D0
:10072000EE0FFF1FE35EFC4F80810895E82FF0E09D
:10073000EE0FFF1FE35EFC4F908181E08927089553
:100740007F928F929F92AF92BF92CF92DF92EF9261
:10075000FF920F931F93CF93DF93CDE1D3E057ED3B
:10076000C52E52E0D52E66E0762E88818983F6016B
:10077000019111916F015801BB24F50124A1E12ED3
:10078000FF2485A190E08E219F2130E02E213F2182
:10079000232B31F0892B51F433E0832E912C0DC0A3
:1007A000892B41F488248394912C07C094E0892EEE
:1007B000912C03C082E0882E912C64E070E0C80187
:1007C0000E943A0362E070E0C8010E943A03872D5C
:1007D0008A95F1F7F50183A190E0E822F92281E002
:1007E000EF2809F080E08883B401C8010E943A0331
:1007F0002296F3E0C732DF0709F0B7CFDF91CF9140
:100800001F910F91FF90EF90DF90CF90BF90AF902E
:100810009F908F907F9008950895009789F0FC0134
:100820002381621B67FD09C0062E000C770B248113
:1008300030E081E0621773070CF080E0817008956A
:1008400080E00895CF93DF93FC01892B79F18181BA
:10085000481760F59281291748F59381A62FA91BA7
:10086000A7FD24C00A2E000CBB0BC481D0E0AC173E
:10087000BD07E4F4622F0E94AD07480F858190E028
:10088000BD010E94B6070696242F2695269526952B
:10089000E80FF91FE20FF11D808190E0477002C060
:1008A000959587954A95E2F7817001C080E0DF91C8
:1008B000CF910895CF93DF93EC010E949F019E0199
:1008C00040E050E062E17AE780E090E00E94DB07E0
:1008D00030932A0320932903DF91CF9108958091CB
:1008E0002703909128030E94AE01209127033091A5
:1008F00028038091290390912A03820F931F9093DC
:100900002803809327030895692F0C94A20241E0E5
:10091000611101C040E0692F0C948C020C94870493
:100920005F926F927F928F929F92AF92BF92CF927F
:10093000DF92EF92FF920F931F93CF93DF93562E88
:10094000872E942E5C01E62EF72EC62F660FDD0B48
:10095000C81BD10987FDD395072F770F110B091BF2
:10096000110997FD1395D7FF03C077247A9402C02D
:100970007724739417FF03C066246A9402C0662428
:100980006394D7FF03C0D195C195D10917FF03C068
:10099000119501951109C017D107A4F06E01D594E6
:1009A000C794F92EA51411F1692D8A2D9F2D0E944F
:1009B0008704C01AD10AD7FE03C0CC0EDD1EF60C88
:1009C000A70CF0CF6801D594C794E82EB81471F045
:1009D000692D8E2D9B2D0E948704CC1ADD0AD7FE2F
:1009E00003C0C00ED11EE70CB60CF0CF692DC701B5
:1009F000DF91CF911F910F91FF90EF90DF90CF90FB
:100A0000BF90AF909F908F907F906F905F900C946D
:100A10008704FF920F931F93CF93DF93D82FF92E64
:100A2000162FC72F042F792F0E949004402F6D2F6F
:100A30007C2F8D2F9F2D0E949004402F612F7C2FA3
:100A4000812F9F2D0E949004402F612F7C2F8D2F8E
:100A50009C2F0E949004DF91CF911F910F91FF90E6
:100A600008950E94CA02E1E0F1E0118A1486089517
:100A7000DF92EF92FF920F931F93CF93DF93D82EC5
:100A80007B01162F0F2D8091030190910401D0E07E
:100A9000019799F50F2D0D1BE0910901F0910A01C5
:100AA0008181C0E0D817B8F48091090190910A01C2
:100AB000FC012281C21768F42C2F4D2F6D2D0E944E
:100AC0002204682F8E2D8C0F902F0E948704CF5FF9
:100AD000EBCFDF5FDFCFE0910901F0910A01828166
:100AE000C81740F460E08E2D8C0F902F0E94870471
:100AF000CF5FF1CF015030C0DF5F1E2D1D0FE091A1
:100B00000901F0910A018181C0E0D817A8F4809111
:100B1000090190910A01FC012281C21768F72C2F6C
:100B20004D2F6D2D0E942204682F812F9F2D9C0F29
:100B30000E948704CF5FEBCFE0910901F0910A0199
:100B40008281C81740F460E0812F9F2D9C0F0E9486
:100B50008704CF5FF1CF1F5F812F902FDF91CF915F
:100B60001F910F91FF90EF90DF9008950F931F93C7
:100B7000CF938C01C0E0F80181918F01882341F06F
:100B80000E943805BC01CF5F853014F477FFF3CFA6
:100B90008C2FCF911F910F9108950F931F93CF9397
:100BA000DF9310920D0140930E01109211010091FC
:100BB000090110910A010115110509F449C09B01B1
:100BC000EC01F8018181609107017091080190E0CA
:100BD0000E94B607BC0180910B0190910C010E940C
:100BE000C707CB016AE070E00E94B607909310013E
:100BF00080930F01309306012093050140E250E0FD
:100C0000BE0182E191E00E941C0880910101909157
:100C100002010197E9F4FE0101900020E9F7319704
:100C2000BF016C1B7D0BF80181818F5F0E94AD07B6
:100C3000815020910301309104012130310511F0E0
:100C400095E001C097E0981718F48EEF809311019A
:100C5000DF91CF911F910F91089520910301309161
:100C600004012130310511F070E001C076E04FEF52
:100C700060E00E94CD05089590E090930801809374
:100C800007010895909302018093010108959093C4
:100C9000040180930301089590930A018093090150
:100CA000089580912B0390912C03019690932C032F
:100CB00080932B0320910F0130911001821793072D
:100CC00008F469C010922C0310922B03E0910D01DF
:100CD000F0E0EF5FFE4F818981110AC080910E0123
:100CE000823008F458C0815080930E0110920D019B
:100CF00080910D0190E0FC01EF5FFE4F21892223DE
:100D000009F449C040910101509102012091110163
:100D10004115510521F04130510599F024C02111B0
:100D200022C060910501709106018E5E9E4F0E9467
:100D3000B60590E0019790910D01890F80930D0108
:100D400012C060910501709106014091030150911C
:100D500004014130510511F4720F01C0621B8E5E17
:100D60009E4F0E94B605809111018F5F8093110103
:100D7000082E000C990BE0910901F0910A012181E4
:100D800030E0281739073CF41092110180910D01D1
:100D90008F5F80930D010C94B602CF93DF93C1E077
:100DA000D1E09B878A870E94D20284E190E09F83F2
:100DB0008E83DF91CF910C94310581110DC080910C
:100DC0002D03882329F090912E0381E0892702C00A
:100DD00080E090E08170089580E0089581110BC05B
:100DE00080912D03811103C080912E0302C080E009
:100DF00090E08170089580E00895811103C0809192
:100E00002D03089580E00895811105C090912D0370
:100E100081E08927089580E00895EDE2F3E0808184
:100E2000818389B1881F8827881F808308955798F8
:100E30005F980895811105C0662311F0429A0895C4
:100E4000429808953A9A429A08950E948F0184EF39
:100E500091E00E94CD0685E391E00E944C068CE073
:100E60000E943C060E940C040E9417070E94390150
:100E700084EF91E00E945A04CC24CA94DC2C20E335
:100E8000B22ED0E300E010E0E12CF12C0E945106DC
:100E90000E940D070E946F04EF2821F483EF92E077
:100EA0000E946900D03321F480E30E94C800D82F4B
:100EB0000115110571F40E941D01882361F00E9443
:100EC0001F01C82F823549F0803539F0833519F478
:100ED00004C0CB2D02C0CB2D02C001E010E00E9467
:100EE0000D0780E00E94DD06882319F08D2F0E94F7
:100EF00027010130110531F000E010E0EE24E39409
:100F0000F12C20C0D033D1F3C033C1F38D2F0E9418
:100F1000270160E080E00E941A0788E50E9427010F
:100F2000A6016C2F8D2F0E949A006C010E949400E4
:100F300084E0C816D10441F0C0E3D0E300E010E043
:100F4000E12CF12CBC2EA2CF84E093E00E9484001F
:100F50000E943105C12CD12CEFCF002480FD060E5C
:100F6000660F11F08695D1F7802D0895002455273E
:100F700004C0080E591F880F991F009729F0769515
:100F80006795B8F37105B9F7802D952F0895AA1BC1
:100F9000BB1B51E107C0AA1FBB1FA617B70710F064
:100FA000A61BB70B881F991F5A95A9F78095909596
:100FB000BC01CD010895052E97FB1EF400940E94FC
:100FC000F20757FD07D00E94FA0707FC03D04EF442
:100FD0000C94F20750954095309521953F4F4F4F17
:100FE0005F4F089590958095709561957F4F8F4FD5
:100FF0009F4F0895A1E21A2EAA1BBB1BFD010DC035
:10100000AA1FBB1FEE1FFF1FA217B307E407F507B8
:1010100020F0A21BB30BE40BF50B661F771F881F94
:10102000991F1A9469F760957095809590959B012A
:10103000AC01BD01CF010895FB01DC0141505040DE
:1010400048F001900D920020C9F701C01D92415057
:0A1050005040E0F70895F894FFCF38
:10105A000100000000000014000000000000000071
:10106A000000000000000000000000000000000076
:10107A000000000000000000000000000000000066
:10108A000000525053010505205F0400000000C60D
:10109A001860004A010000EAABAF00BE38FA00133C
:1010AA0011910126896C018608000048048100021A
:1010BA00412400A4BA4A00847C420000182200009D
:1010CA007C000000006300101111002ED7E900C453
:1010DA0010E2002E12F1010E3AE8004CA58F003FF3
:1010EA003CE8002EBCE8003F4244002EBAE8002E3D
:1010FA007AE800C6006300C600230090040201E0FB
:10110A00830F00814012002E1240000EDAEA0044DA
:10111A00C51F012FBEF8002E86E8002FC6F8003F33
:10112A00BCF0013FBC10002EF4E80131FE18018E1C
:10113A0010E20010C6E800318D14012184F001711B
:10114A00D7180171D61C012EC6E8002FBE10002E3A
:10115A00C664012FBE18012E38E8009F10420031E4
:10116A00C6E8003146450031D61D0151111501313D
:10117A002A42001F92F00127847000411004010ED8
:10118A0021E400444500000000F001822000000E26
:10119A00FAE801A1CDF8002E84E80010DAE8012E61
:1011AA00FEE0004C8A23003E7AE80021B4190104CB
:1011BA0018E20008B06400A98C92008610E200AB25
:1011CA00D618016DC618012EC6E8002FBE100036CB
:1011DA007B08016D8610002E38F800E208C900313C
:1011EA00C66C0131464500B1D6AA0051111501312C
:1011FA007AE8001F11F1014C0CC1008410420086EC
:10120A00206200A2220000D00008000306080A0398
:10121A0040008003100380032000400020001000DB
:10122A000800040002000103800340032000800339
:10123A001057494E4E45520044524157004C4F53A5
:10124A004552005055534820555020544F2053546E
:10125A0041525400434F4E47524154554C41544910
:06126A004F4E532100006D
:00000001FF
