:100000000C943A000C9457000C9457000C94570031
:100010000C9457000C9457000C9457000C94570004
:100020000C9457000C9457000C9457000C945700F4
:100030000C9457000C9457000C9457000C945700E4
:100040000C9457000C9457000C9457000C945700D4
:100050000C9457000C9457000C9457000C945700C4
:100060000C9457000C9457000C9457000C945700B4
:100070000C94570011241FBECFEFD4E0DEBFCDBFDC
:1000800013E0A0E0B1E0E6E8F2E102C005900D92D5
:10009000A631B107D9F723E0A6E1B3E001C01D9274
:1000A000AF32B207E1F70E943C080C9441090C946E
:1000B0000000CF93DF93EC010E943608249739F4B7
:1000C00081EE92E00E941F0881E090E002C080E093
:1000D00090E0DF91CF910895CF93DF93EC010E94E0
:1000E0002B0480E00E94F903882319F021960E94D6
:1000F000BC05CE01DF91CF910895EF92FF920F934F
:100100001F93CF93DF93EC018B017A01FA01608199
:10011000062E000C770BF80180810E94CE07F701B4
:100120008083811102C082E503C0813021F480E523
:100130000E940F080BC0823011F483E5F9CFF8015B
:1001400080830E94BC050E94DC062196CE01DF91CF
:10015000CF911F910F91FF90EF900895AF92BF92B2
:10016000CF92DF92EF92FF920F93CF93DF93EC0148
:100170007B015A0169010E942B040E949807F70134
:10018000808191810197D1F40E94A8018823B1F068
:100190000E94AA01F60180839EEA980F923010F027
:1001A000803549F4F5018083F7011182108261E006
:1001B00080E00E94A50780E3F601808380E00E9432
:1001C0006807882319F0802F0E94B20180E00E9406
:1001D000F903882331F0219681E090E0F7019183C3
:1001E0008083CE01DF91CF910F91FF90EF90DF9050
:1001F000CF90BF90AF900895AF92BF92CF92DF9211
:10020000EF92FF920F931F93CF93DF937C016B01CB
:10021000EA0159010E942B0460E080E00E94A507DA
:10022000F8016081F50180810E94B007F6018083AA
:100230008C3419F482EF92E010C0873551F488EFC6
:1002400092E00E941F088881998101969983888392
:1002500006C0843421F48FEF92E00E941F0880E0F2
:100260000E94F90381110E94BC05C701DF91CF9163
:100270001F910F91FF90EF90DF90CF90BF90AF90C4
:100280000895AF92BF92CF92DF92EF92FF920F93B9
:100290001F93CF93DF93EC015B016A0179010E9408
:1002A0002B0480E00E94F9038823A1F00E94BC0582
:1002B000F501808191810E945900019711F42196E6
:1002C00009C0F801108280E3F6018083F701808382
:1002D000C1E0D0E0CE01DF91CF911F910F91FF904F
:1002E000EF90DF90CF90BF90AF900895CF92DF92C4
:1002F000EF92FF920F931F93CF93DF93EC017B015B
:100300008A0169010E942B0480E00E94F90388237E
:1003100049F0F601108280E3F7018083F8018083C1
:10032000C1E0D0E0CE01DF91CF911F910F91FF90FE
:10033000EF90DF90CF9008950E941A020E94C401AE
:100340000E94A2070E94970484EF91E00C94E504B8
:100350000C94E3020C9404030C94E9020C94EF0255
:100360000C94F5020E94F5020E94EF028823E1F34B
:100370008CE291E00197F1F70E94E30281110C9465
:10038000AA0108950C940B03CF93DF9300D01F9222
:10039000CDB7DEB78091320190913301A091340145
:1003A00089839A83AB83509A589A0E94B6028FE64B
:1003B00090E00E944D0281E090E00E94A50261E081
:1003C00070E081E090E00E9491020E947D02CE01E7
:1003D00001960E94CB020F900F900F90DF91CF916A
:1003E0000895CF93DF93DC01FB0160E070E080E0D3
:1003F000C1E0D0E08417C9F09191BE01092E02C07E
:10040000660F771F0A94E2F76F5F7F4F76956795C7
:100410006A0F7B1F02C0769567959A95E2F76F3F4A
:10042000710519F010F08F5FE5CFF9016083DF915E
:10043000CF910895E1E6F0E080E880831082A895EE
:1004400084B7877F84BFE0E6F0E0808188618083A5
:10045000108208951092800084E0809381001092B1
:100460008500109284000895809184009091850009
:100470000895AC0180918400909185009C01241B1B
:10048000350B283E3340B0F7089520918400309119
:100490008500820F931F0C943902CF93DF931F9234
:1004A000CDB7DEB79E012F5F3F4F45E065E371E0BA
:1004B0000E94F10191E0980F909300019981915071
:1004C00097BD18BC95B5977039F095B5209100018E
:1004D0002770987F922B95BD298130E0E82FF0E0BE
:1004E000EB5CFE4FC901008002C0880F991F0A947F
:1004F000E2F70F90DF91CF91089585B3897F85BB97
:1005000085B5909100019770887F892B85BD0895EE
:1005100085B5887F85BD089585B382FB882780F9DE
:100520000895009719F0019741F0089584B58F73ED
:100530006295660F660F607C05C084B56370629536
:10054000607F8F7C682B64BD0895009741F0019710
:1005500059F484B58E7F84BD84B5826002C084B5B1
:100560008C7F84BD81E0089580E0089514BC15BCA3
:1005700016BC18BC84B58E7F84BD84B5826084BDF2
:1005800081E008959C01215031093093CD008150C4
:100590008093CC000895CF93DF93EC0188819981FB
:1005A0000E94C2028A819BEF980F943008F088E085
:1005B00098E19093C9008550880F8093CA0081E02C
:1005C000DF91CF9108958091C800881F8827881FE8
:1005D00008958091C80085FB882780F9089580914F
:1005E000C80086FB882780F90895CF93C82F0E9402
:1005F000E9028823E1F38091C80080648093C800F9
:10060000C093CE00CF9108958091C80087FFFCCFA2
:100610008091CE000895CF93DF93EC0189918823D8
:1006200019F00E94F502FACFDF91CF91089585303D
:1006300098F4673088F421E030E001C0220F6A9519
:10064000EAF7E82FF0E0E95EFC4F922F9095808169
:1006500089234111822B80830895853080F467308F
:1006600070F421E030E001C0220F6A95EAF7E82F2C
:10067000F0E0E95EFC4F8081282381E009F480E00E
:10068000089560911603E62FF0E0E95EFC4F80814B
:100690000E948F03809116038F5F853018F480933A
:1006A00016030895109216030895E7E1F3E010820F
:1006B000118212821382148208950E946D030C9499
:1006C00055039C01FC01FF2784A1832B84A395A1E2
:1006D000892F832B85A381E00895CF93DF93C4E412
:1006E000D1E0899199910E94610381E0C235D807D8
:1006F000C1F783E090E40E94610380E090E80E94EB
:10070000610383E090E10E94610383E090E80E942E
:10071000610383E090E2DF91CF910C946103E0915B
:100720001C03F0E0EE0FFF1FE65CFE4F20813181DD
:10073000F901FF2795A1932B95A3E4E4F1E097E05D
:1007400020813181D901BB2795962C91959780FF07
:1007500003C03095232301C0232B95962C938695B7
:10076000915032969111ECCFE62FF0E0EE0FFF1F83
:10077000E65CFE4F80819181FC01FF2785A1909569
:10078000892385A360931C0308956230710519F1D4
:1007900070F46130710559F5FC01FF2724A1392F50
:1007A0003095922F932394A385A183231DC063309A
:1007B000710541F064307105D1F4FC01FF2784A17B
:1007C000892B0FC0FC01FF2784A1892B84A385A15D
:1007D0009095892309C0FC01FF2784A1292F20952A
:1007E000822384A385A1892B85A381E0089580E0DD
:1007F0000895E82FF0E0EE0FFF1FE35EFC4F8081CD
:10080000882321F0918181E0892702C080E090E077
:1008100081700895E82FF0E0EE0FFF1FE35EFC4FBC
:100820008081811102C0818102C080E090E08170EE
:100830000895E82FF0E0EE0FFF1FE35EFC4F80818C
:100840000895E82FF0E0EE0FFF1FE35EFC4F90816C
:1008500081E0892708957F928F929F92AF92BF92F5
:10086000CF92DF92EF92FF920F931F93CF93DF937C
:10087000CDE1D3E052E5C52E51E0D52E66E0762ECF
:1008800088818983F601019111916F015801BB2480
:10089000F50124A1E12EFF2485A190E08E219F2166
:1008A00030E02E213F21232B31F0892B51F433E00E
:1008B000832E912C0DC0892B41F488248394912C94
:1008C00007C094E0892E912C03C082E0882E912CE1
:1008D00064E070E0C8010E94C50362E070E0C801F6
:1008E0000E94C503872D8A95F1F7F50183A190E059
:1008F000E822F92281E0EF2809F080E08883B40142
:10090000C8010E94C5032296F3E0C732DF0709F051
:10091000B7CFDF91CF911F910F91FF90EF90DF90B4
:10092000CF90BF90AF909F908F907F900895089543
:10093000009789F0FC012381621B67FD09C0062E28
:10094000000C770B248130E081E0621773070CF014
:1009500080E08170089580E00895CF93DF93FC01DB
:10096000892B79F18181481760F59281291748F523
:100970009381A62FA91BA7FD24C00A2E000CBB0B38
:10098000C481D0E0AC17BD07E4F4622F0E94C30815
:10099000480F858190E0BD010E94CC080696242F67
:1009A000269526952695E80FF91FE20FF11D808107
:1009B00090E0477002C0959587954A95E2F781705F
:1009C00001C080E0DF91CF910895CF93DF93EC01D8
:1009D0000E942A029E0140E050E062E17AE780E056
:1009E00090E00E94F10830932A0320932903DF91BD
:1009F000CF91089580912703909128030E94390296
:100A000020912703309128038091290390912A0394
:100A1000820F931F90932803809327030895692FD3
:100A20000C942D0341E0611101C040E0692F0C944A
:100A300017030C9412055F926F927F928F929F9290
:100A4000AF92BF92CF92DF92EF92FF920F931F93DC
:100A5000CF93DF93562E872E942E5C01E62EF72E31
:100A6000C62F660FDD0BC81BD10987FDD395072F55
:100A7000770F110B091B110997FD1395D7FF03C0C1
:100A800077247A9402C07724739417FF03C06624F6
:100A90006A9402C066246394D7FF03C0D195C195C0
:100AA000D10917FF03C0119501951109C017D1078E
:100AB000A4F06E01D594C794F92EA51411F1692DF7
:100AC0008A2D9F2D0E941205C01AD10AD7FE03C09D
:100AD000CC0EDD1EF60CA70CF0CF6801D594C794A0
:100AE000E82EB81471F0692D8E2D9B2D0E941205F1
:100AF000CC1ADD0AD7FE03C0C00ED11EE70CB60C1F
:100B0000F0CF692DC701DF91CF911F910F91FF9019
:100B1000EF90DF90CF90BF90AF909F908F907F909D
:100B20006F905F900C941205FF920F931F93CF93D9
:100B3000DF93D82FF92E162FC72F042F792F0E945D
:100B40001B05402F6D2F7C2F8D2F9F2D0E941B0585
:100B5000402F612F7C2F812F9F2D0E941B05402F3E
:100B6000612F7C2F8D2F9C2F0E941B05DF91CF9131
:100B70001F910F91FF9008950E945503E1E0F1E06D
:100B8000118A14860895DF92EF92FF920F931F93BC
:100B9000CF93DF93D82E7B01162F0F2D8091030169
:100BA00090910401D0E0019799F50F2D0D1BE09174
:100BB0000901F0910A018181C0E0D817B8F4809151
:100BC000090190910A01FC012281C21768F42C2FBF
:100BD0004D2F6D2D0E94AD04682F8E2D8C0F902F00
:100BE0000E941205CF5FEBCFDF5FDFCFE0910901FD
:100BF000F0910A018281C81740F460E08E2D8C0FBD
:100C0000902F0E941205CF5FF1CF015030C0DF5FFF
:100C10001E2D1D0FE0910901F0910A018181C0E0B4
:100C2000D817A8F48091090190910A01FC01228152
:100C3000C21768F72C2F4D2F6D2D0E94AD04682F21
:100C4000812F9F2D9C0F0E941205CF5FEBCFE0916B
:100C50000901F0910A018281C81740F460E0812FF8
:100C60009F2D9C0F0E941205CF5FF1CF1F5F812F38
:100C7000902FDF91CF911F910F91FF90EF90DF9018
:100C800008950F931F93CF938C01C0E0F8018191D9
:100C90008F01882341F00E94C305BC01CF5F8530DE
:100CA00014F477FFF3CF8C2FCF911F910F910895FC
:100CB0000F931F93CF93DF9310920D0140930E017A
:100CC000109211010091090110910A0101151105FD
:100CD00009F449C09B01EC01F80181816091070191
:100CE0007091080190E00E94CC08BC0180910B013A
:100CF00090910C010E94DD08CB016AE070E00E9437
:100D0000CC089093100180930F013093060120933B
:100D1000050140E250E0BE0182E191E00E9432090B
:100D200080910101909102010197E9F4FE01019087
:100D30000020E9F73197BF016C1B7D0BF801818121
:100D40008F5F0E94C30881502091030130910401FC
:100D50002130310511F095E001C097E0981718F4A3
:100D60008EEF80931101DF91CF911F910F91089524
:100D700020910301309104012130310511F070E020
:100D800001C076E04FEF60E00E945806089590E0C1
:100D90009093080180930701089590930201809336
:100DA00001010895909304018093030108959093A5
:100DB0000A0180930901089580912B0390912C03DF
:100DC000019690932C0380932B0320910F01309177
:100DD00010018217930708F469C010922C03109237
:100DE0002B03E0910D01F0E0EF5FFE4F818981114F
:100DF0000AC080910E01823008F458C0815080935F
:100E00000E0110920D0180910D0190E0FC01EF5F49
:100E1000FE4F2189222309F449C0409101015091DC
:100E20000201209111014115510521F04130510578
:100E300099F024C0211122C0609105017091060132
:100E40008E5E9E4F0E94410690E0019790910D01A9
:100E5000890F80930D0112C0609105017091060108
:100E600040910301509104014130510511F4720F7A
:100E700001C0621B8E5E9E4F0E944106809111014F
:100E80008F5F80931101082E000C990BE0910901EE
:100E9000F0910A01218130E0281739073CF41092C3
:100EA000110180910D018F5F80930D010C9441031E
:100EB000CF93DF93C1E0D1E09B878A870E945D03D7
:100EC00084E190E09F838E83DF91CF910C94BC05E9
:100ED00081110DC080912D03882329F090912E035C
:100EE00081E0892702C080E090E08170089580E071
:100EF000089581110BC080912D03811103C0809151
:100F00002E0302C080E090E08170089580E0089593
:100F1000811103C080912D03089580E0089581110F
:100F200005C090912D0381E08927089580E0089500
:100F3000EDE2F3E08081818389B1881F8827881FD3
:100F40008083089557985F980895811105C066239E
:100F500011F0429A0895429808953A9A429A089553
:100F60006817B1F0833529F46235B1F0603571F45A
:100F700011C0823529F4603579F0633539F40AC03F
:100F8000803521F4623531F0633531F080E3089526
:100F900084E4089587E508958CE408950F931F93E2
:100FA000CF93DF9300D01F92CDB7DEB78B01809136
:100FB0005C0190915D01A0915E0189839A83AB836E
:100FC0000E942B0483E00E94F903882341F001155D
:100FD000110519F00150110902C002E010E081E092
:100FE0000E94F903882341F00230110519F00F5FC8
:100FF0001F4F02C000E010E084E00E94F903882344
:1010000029F0FE01E00FF11F818101C0802F0F90B8
:101010000F900F90DF91CF911F910F910895CF9373
:10102000DF9300D0CDB7DEB789831A82CE01019657
:101030000E94B8060F900F90DF91CF910895CF9343
:10104000DF93EC0184EF91E00E9458078FE591E077
:101050000E94D7068AE00E94C706CE010E94B80609
:1010600081E090E0DF91CF910C94CD0661E096E0B5
:101070000E9419050C94DC06CF93DF93CDB7DEB741
:1010800029970FB6F894DEBF0FBECDBF0E949C011A
:1010900080E3898788878F838E831D828FEF9FEF00
:1010A0009C838B8381E090E09A83898384E093E042
:1010B0000E941F0800E010E00E94FA040E94DC0673
:1010C0000115110529F480E090E00E946C008C016C
:1010D0000130110559F4AE014B5F5F4FBE01675FF0
:1010E0007F4F81E090E00E947D008C01023011056D
:1010F00079F409859E012A5F3F4FAE01485F5F4F3B
:10110000BE016F5F7F4F82E090E00E94AE008C01D5
:101110000330110589F48E01085F1F4F9E01275F80
:101120003F4FAE014D5F5F4FBE01695F7F4F83E070
:1011300090E00E94FC008C010430110589F48E01BE
:101140000B5F1F4F9E01285F3F4FAE01475F5F4F10
:10115000BE016D5F7F4F84E090E00E9441018C01F1
:101160000530110509F0A8CF9E012B5F3F4FAE015E
:10117000485F5F4FBE01675F7F4F85E090E00E9450
:1011800076018C0199CF002480FD060E660F11F0C8
:101190008695D1F7802D08950024552704C0080EA8
:1011A000591F880F991F009729F076956795B8F316
:1011B0007105B9F7802D952F0895AA1BBB1B51E12E
:1011C00007C0AA1FBB1FA617B70710F0A61BB70BB7
:1011D000881F991F5A95A9F780959095BC01CD015C
:1011E0000895052E97FB1EF400940E94080957FDF0
:1011F00007D00E94100907FC03D04EF40C94080994
:1012000050954095309521953F4F4F4F5F4F089532
:1012100090958095709561957F4F8F4F9F4F089562
:10122000A1E21A2EAA1BBB1BFD010DC0AA1FBB1FEA
:10123000EE1FFF1FA217B307E407F50720F0A21B5C
:10124000B30BE40BF50B661F771F881F991F1A94C9
:1012500069F760957095809590959B01AC01BD01F3
:10126000CF010895FB01DC014150504048F001904E
:101270000D920020C9F701C01D9241505040E0F787
:061280000895F894FFCF71
:101286000100000000000014000000000000000043
:101296000000000000000000000000000000000048
:1012A6000000000000000000000000000000000038
:1012B6000000D00008000306080A0340008003105F
:1012C60003800320004000200010000800040002F4
:1012D6000001038003400320008003105250530195
:1012E6000505205F0400000000C61860004A0100E2
:1012F60000EAABAF00BE38FA001311910126896CE3
:1013060001860800004804810002412400A4BA4A6C
:1013160000847C420000182200007C00000000636C
:1013260000101111002ED7E900C410E2002E12F1B0
:10133600010E3AE8004CA58F003F3CE8002EBCE8C1
:10134600003F4244002EBAE8002E7AE800C6006349
:1013560000C600230090040201E0830F00814012C2
:10136600002E1240000EDAEA0044C51F012FBEF817
:10137600002E86E8002FC6F8003FBCF0013FBC10E7
:10138600002EF4E80131FE18018E10E20010C6E8C6
:1013960000318D14012184F00171D7180171D61C1A
:1013A600012EC6E8002FBE10002EC664012FBE18FF
:1013B600012E38E8009F10420031C6E8003146454C
:1013C6000031D61D0151111501312A42001F92F03C
:1013D6000127847000411004010E21E400444500F9
:1013E600000000F001822000000EFAE801A1CDF80D
:1013F600002E84E80010DAE8012EFEE0004C8A2375
:10140600003E7AE80021B419010418E20008B0642D
:1014160000A98C92008610E200ABD618016DC618A2
:10142600012EC6E8002FBE1000367B08016D86101F
:10143600002E38F800E208C90031C66C0131464575
:1014460000B1D6AA0051111501317AE8001F11F139
:10145600014C0CC1008410420086206200A22200CA
:1014660000434F4E47524154554C4154494F4E53F9
:1014760021004C4F5345520057494E4E45520044A9
:10148600524157005055534820555020544F205331
:0614960054415254000015
:00000001FF
