:100000000C943A000C9457000C9457000C94570031
:100010000C9457000C9457000C9457000C94570004
:100020000C9457000C9457000C9457000C945700F4
:100030000C9457000C9457000C9457000C945700E4
:100040000C9457000C9457000C9457000C945700D4
:100050000C9457000C9457000C9457000C945700C4
:100060000C9457000C9457000C9457000C945700B4
:100070000C94570011241FBECFEFD4E0DEBFCDBFDC
:1000800013E0A0E0B1E0E6E2F0E102C005900D92DD
:10009000A631B107D9F723E0A6E1B3E001C01D9274
:1000A000AF32B207E1F70E94F2060C9411080C94EB
:1000B00000000C9494010C94B5010C949A010C94DA
:1000C000A0010C94A6010E94A6010E94A001882311
:1000D000E1F38CE291E00197F1F70E949401811124
:1000E0000C945B0008950C94BC01CF93DF9300D077
:1000F0001F92CDB7DEB78091320190913301A0916C
:10010000340189839A83AB83509A589A0E9467017D
:100110008FE690E00E94FE0081E090E00E94560190
:1001200061E070E081E090E00E9442010E942E01B7
:10013000CE0101960E947C010F900F900F90DF91ED
:10014000CF910895CF93DF93DC01FB0160E070E075
:1001500080E0C1E0D0E08417C9F09191BE01092E82
:1001600002C0660F771F0A94E2F76F5F7F4F7695A4
:1001700067956A0F7B1F02C0769567959A95E2F79F
:100180006F3F710519F010F08F5FE5CFF9016083C3
:10019000DF91CF910895E1E6F0E080E8808310825E
:1001A000A89584B7877F84BFE0E6F0E0808188610E
:1001B0008083108208951092800084E080938100F3
:1001C000109285001092840008958091840090918F
:1001D00085000895AC0180918400909185009C0178
:1001E000241B350B283E3340B0F70895209184003E
:1001F00030918500820F931F0C94EA00CF93DF9318
:100200001F92CDB7DEB79E012F5F3F4F45E065E3FC
:1002100071E00E94A20091E0980F909300019981F3
:10022000915097BD18BC95B5977039F095B5209150
:1002300000012770987F922B95BD298130E0E82F2F
:10024000F0E0EB5CFE4FC901008002C0880F991FEF
:100250000A94E2F70F90DF91CF91089585B3897FDB
:1002600085BB85B5909100019770887F892B85BDEE
:10027000089585B5887F85BD089585B382FB88275D
:1002800080F90895009719F0019741F0089584B519
:100290008F736295660F660F607C05C084B56370CE
:1002A0006295607F8F7C682B64BD0895009741F054
:1002B000019759F484B58E7F84BD84B5826002C0F5
:1002C00084B58C7F84BD81E0089580E0089514BCDE
:1002D00015BC16BC18BC84B58E7F84BD84B5826005
:1002E00084BD81E008959C01215031093093CD00F7
:1002F00081508093CC000895CF93DF93EC018881E7
:1003000099810E9473018A819BEF980F943008F0C5
:1003100088E098E19093C9008550880F8093CA00C7
:1003200081E0DF91CF9108958091C800881F8827D0
:10033000881F08958091C80085FB882780F908955B
:100340008091C80086FB882780F90895CF93C82F35
:100350000E949A018823E1F38091C8008064809311
:10036000C800C093CE00CF9108958091C80087FF48
:10037000FCCF8091CE000895CF93DF93EC0189915B
:10038000882319F00E94A601FACFDF91CF9108953A
:10039000853098F4673088F421E030E001C0220F06
:1003A0006A95EAF7E82FF0E0E95EFC4F922F90950E
:1003B000808189234111822B80830895853080F4C8
:1003C000673070F421E030E001C0220F6A95EAF74F
:1003D000E82FF0E0E95EFC4F8081282381E009F4FA
:1003E00080E0089560911603E62FF0E0E95EFC4F8F
:1003F00080810E944002809116038F5F853018F43F
:10040000809316030895109216030895E7E1F3E030
:100410001082118212821382148208950E941E0299
:100420000C9406029C01FC01FF2784A1832B84A36A
:1004300095A1892F832B85A381E00895CF93DF9326
:10044000C4E4D1E0899199910E94120281E0C23501
:10045000D807C1F783E090E40E94120280E090E8A0
:100460000E94120283E090E10E94120283E090E871
:100470000E94120283E090E2DF91CF910C9412026D
:10048000E0911C03F0E0EE0FFF1FE65CFE4F2081C1
:100490003181F901FF2795A1932B95A3E4E4F1E0C5
:1004A00097E020813181D901BB2795962C919597B2
:1004B00080FF03C03095232301C0232B95962C93F6
:1004C0008695915032969111ECCFE62FF0E0EE0F29
:1004D000FF1FE65CFE4F80819181FC01FF2785A113
:1004E0009095892385A360931C030895623071055C
:1004F00019F170F46130710559F5FC01FF2724A151
:10050000392F3095922F932394A385A183231DC067
:100510006330710541F064307105D1F4FC01FF27AF
:1005200084A1892B0FC0FC01FF2784A1892B84A300
:1005300085A19095892309C0FC01FF2784A1292F5B
:100540002095822384A385A1892B85A381E008952A
:1005500080E00895E82FF0E0EE0FFF1FE35EFC4F10
:100560008081882321F0918181E0892702C080E089
:1005700090E081700895E82FF0E0EE0FFF1FE35E3A
:10058000FC4F8081811102C0818102C080E090E037
:1005900081700895E82FF0E0EE0FFF1FE35EFC4F3F
:1005A00080810895E82FF0E0EE0FFF1FE35EFC4F1F
:1005B000908181E0892708957F928F929F92AF92D8
:1005C000BF92CF92DF92EF92FF920F931F93CF9340
:1005D000DF93CDE1D3E052E5C52E51E0D52E66E0A4
:1005E000762E88818983F601019111916F0158015E
:1005F000BB24F50124A1E12EFF2485A190E08E21EA
:100600009F2130E02E213F21232B31F0892B51F403
:1006100033E0832E912C0DC0892B41F488248394E0
:10062000912C07C094E0892E912C03C082E0882E83
:10063000912C64E070E0C8010E94760262E070E0F4
:10064000C8010E947602872D8A95F1F7F50183A1F2
:1006500090E0E822F92281E0EF2809F080E0888329
:10066000B401C8010E9476022296F3E0C732DF0788
:1006700009F0B7CFDF91CF911F910F91FF90EF90CD
:10068000DF90CF90BF90AF909F908F907F90089514
:100690000895009789F0FC012381621B67FD09C062
:1006A000062E000C770B248130E081E0621773077F
:1006B0000CF080E08170089580E00895CF93DF937F
:1006C000FC01892B79F18181481760F59281291706
:1006D00048F59381A62FA91BA7FD24C00A2E000C64
:1006E000BB0BC481D0E0AC17BD07E4F4622F0E94BD
:1006F0009307480F858190E0BD010E949C070696F4
:10070000242F269526952695E80FF91FE20FF11D57
:10071000808190E0477002C0959587954A95E2F7F1
:10072000817001C080E0DF91CF910895CF93DF9376
:10073000EC010E94DB009E0140E050E062E17AE7BC
:1007400080E090E00E94C10730932A0320932903A0
:10075000DF91CF91089580912703909128030E9403
:10076000EA0020912703309128038091290390917A
:100770002A03820F931F90932803809327030895E1
:10078000692F0C94DE0141E0611101C040E0692F46
:100790000C94C8010C94C3035F926F927F928F9266
:1007A0009F92AF92BF92CF92DF92EF92FF920F9300
:1007B0001F93CF93DF93562E872E942E5C01E62E47
:1007C000F72EC62F660FDD0BC81BD10987FDD39509
:1007D000072F770F110B091B110997FD1395D7FFF1
:1007E00003C077247A9402C07724739417FF03C060
:1007F00066246A9402C066246394D7FF03C0D1952F
:10080000C195D10917FF03C0119501951109C017B2
:10081000D107A4F06E01D594C794F92EA51411F157
:10082000692D8A2D9F2D0E94C303C01AD10AD7FEBD
:1008300003C0CC0EDD1EF60CA70CF0CF6801D594DA
:10084000C794E82EB81471F0692D8E2D9B2D0E944F
:10085000C303CC1ADD0AD7FE03C0C00ED11EE70CBD
:10086000B60CF0CF692DC701DF91CF911F910F9189
:10087000FF90EF90DF90CF90BF90AF909F908F90C0
:100880007F906F905F900C94C303FF920F931F9320
:10089000CF93DF93D82FF92E162FC72F042F792F40
:1008A0000E94CC03402F6D2F7C2F8D2F9F2D0E94F7
:1008B000CC03402F612F7C2F812F9F2D0E94CC03D2
:1008C000402F612F7C2F8D2F9C2F0E94CC03DF9116
:1008D000CF911F910F91FF9008950E940602E1E0D1
:1008E000F1E0118A14860895DF92EF92FF920F9340
:1008F0001F93CF93DF93D82E7B01162F0F2D80915E
:10090000030190910401D0E0019799F50F2D0D1B83
:10091000E0910901F0910A018181C0E0D817B8F493
:100920008091090190910A01FC012281C21768F4AB
:100930002C2F4D2F6D2D0E945E03682F8E2D8C0F56
:10094000902F0E94C303CF5FEBCFDF5FDFCFE0913B
:100950000901F0910A018281C81740F460E08E2DF0
:100960008C0F902F0E94C303CF5FF1CF015030C096
:10097000DF5F1E2D1D0FE0910901F0910A018181B9
:10098000C0E0D817A8F48091090190910A01FC01F8
:100990002281C21768F72C2F4D2F6D2D0E945E0308
:1009A000682F812F9F2D9C0F0E94C303CF5FEBCF39
:1009B000E0910901F0910A018281C81740F460E0DA
:1009C000812F9F2D9C0F0E94C303CF5FF1CF1F5F2C
:1009D000812F902FDF91CF911F910F91FF90EF907A
:1009E000DF9008950F931F93CF938C01C0E0F8011F
:1009F00081918F01882341F00E947404BC01CF5F74
:100A0000853014F477FFF3CF8C2FCF911F910F9186
:100A100008950F931F93CF93DF9310920D0140938E
:100A20000E01109211010091090110910A010115A6
:100A3000110509F449C09B01EC01F8018181609125
:100A400007017091080190E00E949C07BC01809111
:100A50000B0190910C010E94AD07CB016AE070E0A0
:100A60000E949C079093100180930F013093060120
:100A70002093050140E250E0BE0182E191E00E9436
:100A8000020880910101909102010197E9F4FE01B1
:100A900001900020E9F73197BF016C1B7D0BF80135
:100AA00081818F5F0E9493078150209103013091D3
:100AB00004012130310511F095E001C097E098174D
:100AC00018F48EEF80931101DF91CF911F910F9158
:100AD000089520910301309104012130310511F076
:100AE00070E001C076E04FEF60E00E9409050895D4
:100AF00090E090930801809307010895909302017C
:100B00008093010108959093040180930301089557
:100B100090930A0180930901089580912B0390918D
:100B20002C03019690932C0380932B0320910F01AB
:100B3000309110018217930708F469C010922C03BA
:100B400010922B03E0910D01F0E0EF5FFE4F8189E1
:100B500081110AC080910E01823008F458C0815082
:100B600080930E0110920D0180910D0190E0FC0127
:100B7000EF5FFE4F2189222309F449C04091010112
:100B800050910201209111014115510521F0413090
:100B9000510599F024C0211122C060910501709186
:100BA00006018E5E9E4F0E94F20490E001979091A4
:100BB0000D01890F80930D0112C0609105017091A4
:100BC000060140910301509104014130510511F497
:100BD000720F01C0621B8E5E9E4F0E94F2048091D4
:100BE00011018F5F80931101082E000C990BE09189
:100BF0000901F0910A01218130E0281739073CF4FE
:100C00001092110180910D018F5F80930D010C9462
:100C1000F201CF93DF93C1E0D1E09B878A870E94E6
:100C20000E0284E190E09F838E83DF91CF910C943C
:100C30006D0481110DC080912D03882329F09091BE
:100C40002E0381E0892702C080E090E08170089542
:100C500080E0089581110BC080912D03811103C0A4
:100C600080912E0302C080E090E08170089580E0C2
:100C70000895811103C080912D03089580E00895A7
:100C8000811105C090912D0381E08927089580E0AE
:100C90000895EDE2F3E08081818389B1881F882780
:100CA000881F8083089557985F980895811105C023
:100CB000662311F0429A0895429808953A9A429A0A
:100CC00008956817B9F0833529F46235B9F06035B5
:100CD00071F412C0823529F4603581F0633539F43E
:100CE0000BC0803521F4623539F0633539F080E38B
:100CF00090E0089584E403C087E501C08CE4082EE9
:100D0000000C990B08950F931F93CF93DF9300D09E
:100D10001F92CDB7DEB78B0180915C0190915D0190
:100D2000A0915E0189839A83AB830E94DC0283E0F9
:100D30000E94AA02882341F00115110519F0015003
:100D4000110902C002E010E081E00E94AA0288239B
:100D500041F00230110519F00F5F1F4F02C000E093
:100D600010E084E00E94AA02882329F0FE01E00F2F
:100D7000F11F818101C0802F0F900F900F90DF91A4
:100D8000CF911F910F910895CF93DF9300D0CDB7EE
:100D9000DEB789831A82CE0101960E9469050F9001
:100DA0000F90DF91CF910895CF93DF93EC0184EF03
:100DB00091E00E9409068FE591E00E9488058AE093
:100DC0000E947805CE010E94690581E090E00E94B2
:100DD0007E05DF91CF91089561E096E00E94CA03FD
:100DE0000C948D0581EE92E00E94D406CC24CA9426
:100DF000DC2C10E090E3F92E00E3C0E0D0E00E948C
:100E0000AB03209761F40E948D050E94DC0280E014
:100E10000E94AA02882399F30E946D0403C0C13086
:100E2000D10519F50E948D05612F110F770B802FC9
:100E30000E948306182F811102C082E507C081300D
:100E400011F480E503C0823031F483E50E94C406CA
:100E5000C1E0D0E0D4CF61E080E00E9456060E945D
:100E60006D040E948D05012F03C0C230D10509F524
:100E70000E945900882379F00E945B009EEA980F37
:100E8000923028F0803539F480E5F82E01C0F82E34
:100E9000C3E0D0E002C0C2E0D0E00E94490680E09A
:100EA0000E941906882329F00E946D04802F0E9459
:100EB0006300C330D10509F0A2CF802F0E946300E8
:100EC00060E080E00E94560688E50E9463006F2D76
:100ED000802F0E9461068C3419F482EF92E00EC0DC
:100EE000873541F488EF92E00E94D4068FEFC81A4C
:100EF000D80A06C0843421F48FEF92E00E94D40611
:100F00000E946D04C6010E94EC0684E0C816D1045C
:100F100009F070CF84E093E00E94D4060E946D0433
:100F2000C12CD12C67CF002480FD060E660F11F076
:100F30008695D1F7802D08950024552704C0080E0A
:100F4000591F880F991F009729F076956795B8F378
:100F50007105B9F7802D952F0895AA1BBB1B51E190
:100F600007C0AA1FBB1FA617B70710F0A61BB70B19
:100F7000881F991F5A95A9F780959095BC01CD01BE
:100F80000895052E97FB1EF400940E94D80757FD84
:100F900007D00E94E00707FC03D04EF40C94D8075A
:100FA00050954095309521953F4F4F4F5F4F089595
:100FB00090958095709561957F4F8F4F9F4F0895C5
:100FC000A1E21A2EAA1BBB1BFD010DC0AA1FBB1F4D
:100FD000EE1FFF1FA217B307E407F50720F0A21BBF
:100FE000B30BE40BF50B661F771F881F991F1A942C
:100FF00069F760957095809590959B01AC01BD0156
:10100000CF010895FB01DC014150504048F00190B0
:101010000D920020C9F701C01D9241505040E0F7E9
:061020000895F894FFCFD3
:1010260001000000000000140000000000000000A5
:1010360000000000000000000000000000000000AA
:10104600000000000000000000000000000000009A
:101056000000D00008000306080A034000800310C1
:101066000380032000400020001000080004000256
:1010760000010380034003200080031052505301F7
:101086000505205F0400000000C61860004A010044
:1010960000EAABAF00BE38FA001311910126896C45
:1010A60001860800004804810002412400A4BA4ACF
:1010B60000847C420000182200007C0000000063CF
:1010C60000101111002ED7E900C410E2002E12F113
:1010D600010E3AE8004CA58F003F3CE8002EBCE824
:1010E600003F4244002EBAE8002E7AE800C60063AC
:1010F60000C600230090040201E0830F0081401225
:10110600002E1240000EDAEA0044C51F012FBEF879
:10111600002E86E8002FC6F8003FBCF0013FBC1049
:10112600002EF4E80131FE18018E10E20010C6E828
:1011360000318D14012184F00171D7180171D61C7C
:10114600012EC6E8002FBE10002EC664012FBE1861
:10115600012E38E8009F10420031C6E800314645AE
:101166000031D61D0151111501312A42001F92F09E
:101176000127847000411004010E21E4004445005B
:10118600000000F001822000000EFAE801A1CDF86F
:10119600002E84E80010DAE8012EFEE0004C8A23D7
:1011A600003E7AE80021B419010418E20008B06490
:1011B60000A98C92008610E200ABD618016DC61805
:1011C600012EC6E8002FBE1000367B08016D861082
:1011D600002E38F800E208C90031C66C01314645D8
:1011E60000B1D6AA0051111501317AE8001F11F19C
:1011F600014C0CC1008410420086206200A222002D
:10120600005055534820555020544F2053544152B6
:1012160054004C4F5345520057494E4E45520044D8
:1012260052415700434F4E47524154554C41544941
:061236004F4E53210000A1
:00000001FF
