:100000000C943A000C9457000C9457000C94570031
:100010000C9457000C9457000C9457000C94570004
:100020000C9457000C9457000C9457000C945700F4
:100030000C9457000C9457000C9457000C945700E4
:100040000C9457000C9457000C9457000C945700D4
:100050000C9457000C9457000C9457000C945700C4
:100060000C9457000C9457000C9457000C945700B4
:100070000C94570011241FBECFEFD4E0DEBFCDBFDC
:1000800013E0A0E0B1E0ECEAFFE002C005900D92C1
:10009000A436B107D9F723E0A4E6B3E001C01D926E
:1000A000AD37B207E1F70E94A9060C94D4070C946F
:1000B0000000CF93DF9300D0CDB7DEB789831A82DB
:1000C000CE0101960E94B1050F900F90DF91CF9164
:1000D0000895CF93DF93EC0181E090E00E94C60584
:1000E000CE010E94B1050E94F3030E94D5050E9433
:1000F000240380E00E94F2028823A9F3DF91CF91CC
:1001000008956817D1F0833529F4623581F06035A0
:10011000A1F410C0823529F4603549F0633569F4E3
:1001200009C0803551F4623529F0633531F480E43B
:1001300093E005C086E493E002C08DE493E00C9464
:1001400069000C94DC010C94FD010C94E2010C9408
:10015000E8010C94EE010E94EE010E94E801882360
:10016000E1F38CE291E00197F1F70E94DC0181114B
:100170000C94A30008950C940402CF93DF9300D055
:100180001F92CDB7DEB78091160390911703A0910F
:10019000180389839A83AB83509A589A0E94AF01BF
:1001A0008FE690E00E94460181E090E00E949E016F
:1001B00061E070E081E090E00E948A010E94760197
:1001C000CE0101960E94C4010F900F900F90DF9115
:1001D000CF910895CF93DF93DC01FB0160E070E0E5
:1001E00080E0C1E0D0E08417C9F09191BE01092EF2
:1001F00002C0660F771F0A94E2F76F5F7F4F769514
:1002000067956A0F7B1F02C0769567959A95E2F70E
:100210006F3F710519F010F08F5FE5CFF901608332
:10022000DF91CF910895E1E6F0E080E880831082CD
:10023000A89584B7877F84BFE0E6F0E0808188617D
:100240008083108208951092800084E08093810062
:1002500010928500109284000895809184009091FE
:1002600085000895AC0180918400909185009C01E7
:10027000241B350B283E3340B0F7089520918400AD
:1002800030918500820F931F0C943201CF93DF933E
:100290001F92CDB7DEB79E012F5F3F4F45E069E16A
:1002A00073E00E94EA0091E0980F90930001998119
:1002B000915097BD18BC95B5977039F095B52091C0
:1002C00000012770987F922B95BD298130E0E82F9F
:1002D000F0E0E75EFC4FC901008002C0880F991F63
:1002E0000A94E2F70F90DF91CF91089585B3897F4B
:1002F00085BB85B5909100019770887F892B85BD5E
:10030000089585B5887F85BD089585B382FB8827CC
:1003100080F90895009719F0019741F0089584B588
:100320008F736295660F660F607C05C084B563703D
:100330006295607F8F7C682B64BD0895009741F0C3
:10034000019759F484B58E7F84BD84B5826002C064
:1003500084B58C7F84BD81E0089580E0089514BC4D
:1003600015BC16BC18BC84B58E7F84BD84B5826074
:1003700084BD81E008959C01215031093093CD0066
:1003800081508093CC000895CF93DF93EC01888156
:1003900099810E94BB018A819BEF980F943008F0ED
:1003A00088E098E19093C9008550880F8093CA0037
:1003B00081E0DF91CF9108958091C800881F882740
:1003C000881F08958091C80085FB882780F90895CB
:1003D0008091C80086FB882780F90895CF93C82FA5
:1003E0000E94E2018823E1F38091C8008064809339
:1003F000C800C093CE00CF9108958091C80087FFB8
:10040000FCCF8091CE000895CF93DF93EC018991CA
:10041000882319F00E94EE01FACFDF91CF91089561
:10042000853098F4673088F421E030E001C0220F75
:100430006A95EAF7E82FF0E0EB59FC4F922F909580
:10044000808189234111822B80830895853080F437
:10045000673070F421E030E001C0220F6A95EAF7BE
:10046000E82FF0E0EB59FC4F8081282381E009F46C
:1004700080E0089560916403E62FF0E0EB59FC4FB3
:1004800080810E948802809164038F5F853018F418
:10049000809364030895109264030895E5E6F3E001
:1004A0001082118212821382148208950E946602C1
:1004B0000C944E029C01FC01FF2784A1832B84A392
:1004C00095A1892F832B85A381E00895CF93DF9396
:1004D000C8E2D3E0899199910E945A0283E0C63321
:1004E000D807C1F783E090E40E945A0280E090E8C8
:1004F0000E945A0283E090E10E945A0283E090E851
:100500000E945A0283E090E2DF91CF910C945A024C
:10051000E0916A03F0E0EE0FFF1FE25EFC4F2081E6
:100520003181F901FF2795A1932B95A3E8E2F3E030
:1005300097E020813181D901BB2795962C91959721
:1005400080FF03C03095232301C0232B95962C9365
:100550008695915032969111ECCFE62FF0E0EE0F98
:10056000FF1FE25EFC4F80819181FC01FF2785A186
:100570009095892385A360936A030895623071057D
:1005800019F170F46130710559F5FC01FF2724A1C0
:10059000392F3095922F932394A385A183231DC0D7
:1005A0006330710541F064307105D1F4FC01FF271F
:1005B00084A1892B0FC0FC01FF2784A1892B84A370
:1005C00085A19095892309C0FC01FF2784A1292FCB
:1005D0002095822384A385A1892B85A381E008959A
:1005E00080E00895E82FF0E0EE0FFF1FE559FC4F83
:1005F0008081882321F0918181E0892702C080E0F9
:1006000090E081700895E82FF0E0EE0FFF1FE559AC
:10061000FC4F8081811102C0818102C080E090E0A6
:1006200081700895E82FF0E0EE0FFF1FE559FC4FB1
:1006300080810895E82FF0E0EE0FFF1FE559FC4F91
:10064000908181E0892708957F928F929F92AF9247
:10065000BF92CF92DF92EF92FF920F931F93CF93AF
:10066000DF93CBE6D3E056E3C52E53E0D52E66E00C
:10067000762E88818983F601019111916F015801CD
:10068000BB24F50124A1E12EFF2485A190E08E2159
:100690009F2130E02E213F21232B31F0892B51F473
:1006A00033E0832E912C0DC0892B41F48824839450
:1006B000912C07C094E0892E912C03C082E0882EF3
:1006C000912C64E070E0C8010E94BE0262E070E01C
:1006D000C8010E94BE02872D8A95F1F7F50183A11A
:1006E00090E0E822F92281E0EF2809F080E0888399
:1006F000B401C8010E94BE022296F3E0C537DF07AD
:1007000009F0B7CFDF91CF911F910F91FF90EF903C
:10071000DF90CF90BF90AF909F908F907F90089583
:100720000895009789F0FC012381621B67FD09C0D1
:10073000062E000C770B248130E081E062177307EE
:100740000CF080E08170089580E00895CF93DF93EE
:10075000FC01892B79F18181481760F59281291775
:1007600048F59381A62FA91BA7FD24C00A2E000CD3
:10077000BB0BC481D0E0AC17BD07E4F4622F0E942C
:100780005607480F858190E0BD010E945F070696DD
:10079000242F269526952695E80FF91FE20FF11DC7
:1007A000808190E0477002C0959587954A95E2F761
:1007B000817001C080E0DF91CF910895CF93DF93E6
:1007C000EC010E9423019E0140E050E062E17AE7E3
:1007D00080E090E00E9484073093780320937703B1
:1007E000DF91CF91089580917503909176030E94D7
:1007F00032012091750330917603809177039091B7
:100800007803820F931F9093760380937503089566
:10081000692F0C94260241E0611101C040E0692F6C
:100820000C9410020C940B045F926F927F928F9243
:100830009F92AF92BF92CF92DF92EF92FF920F936F
:100840001F93CF93DF93562E872E942E5C01E62EB6
:10085000F72EC62F660FDD0BC81BD10987FDD39578
:10086000072F770F110B091B110997FD1395D7FF60
:1008700003C077247A9402C07724739417FF03C0CF
:1008800066246A9402C066246394D7FF03C0D1959E
:10089000C195D10917FF03C0119501951109C01722
:1008A000D107A4F06E01D594C794F92EA51411F1C7
:1008B000692D8A2D9F2D0E940B04C01AD10AD7FEE4
:1008C00003C0CC0EDD1EF60CA70CF0CF6801D5944A
:1008D000C794E82EB81471F0692D8E2D9B2D0E94BF
:1008E0000B04CC1ADD0AD7FE03C0C00ED11EE70CE4
:1008F000B60CF0CF692DC701DF91CF911F910F91F9
:10090000FF90EF90DF90CF90BF90AF909F908F902F
:100910007F906F905F900C940B04FF920F931F9346
:10092000CF93DF93D82FF92E162FC72F042F792FAF
:100930000E941404402F6D2F7C2F8D2F9F2D0E941D
:100940001404402F612F7C2F812F9F2D0E941404AF
:10095000402F612F7C2F8D2F9C2F0E941404DF913C
:10096000CF911F910F91FF9008950E944E02E1E0F8
:10097000F1E0118A14860895DF92EF92FF920F93AF
:100980001F93CF93DF93D82E7B01162F0F2D8091CD
:10099000030190910401D0E0019799F50F2D0D1BF3
:1009A000E0910901F0910A018181C0E0D817B8F403
:1009B0008091090190910A01FC012281C21768F41B
:1009C0002C2F4D2F6D2D0E94A603682F8E2D8C0F7E
:1009D000902F0E940B04CF5FEBCFDF5FDFCFE09162
:1009E0000901F0910A018281C81740F460E08E2D60
:1009F0008C0F902F0E940B04CF5FF1CF015030C0BD
:100A0000DF5F1E2D1D0FE0910901F0910A01818128
:100A1000C0E0D817A8F48091090190910A01FC0167
:100A20002281C21768F72C2F4D2F6D2D0E94A6032F
:100A3000682F812F9F2D9C0F0E940B04CF5FEBCF5F
:100A4000E0910901F0910A018281C81740F460E049
:100A5000812F9F2D9C0F0E940B04CF5FF1CF1F5F52
:100A6000812F902FDF91CF911F910F91FF90EF90E9
:100A7000DF9008950F931F93CF938C01C0E0F8018E
:100A800081918F01882341F00E94BC04BC01CF5F9B
:100A9000853014F477FFF3CF8C2FCF911F910F91F6
:100AA00008950F931F93CF93DF9310920D014093FE
:100AB0000E01109211010091090110910A01011516
:100AC000110509F449C09B01EC01F8018181609195
:100AD00007017091080190E00E945F07BC018091BE
:100AE0000B0190910C010E947007CB016AE070E04D
:100AF0000E945F079093100180930F0130930601CD
:100B00002093050140E250E0BE0182E191E00E94A5
:100B1000C50780910101909102010197E9F4FE015E
:100B200001900020E9F73197BF016C1B7D0BF801A4
:100B300081818F5F0E94560781502091030130917F
:100B400004012130310511F095E001C097E09817BC
:100B500018F48EEF80931101DF91CF911F910F91C7
:100B6000089520910301309104012130310511F0E5
:100B700070E001C076E04FEF60E00E9451050895FB
:100B800090E09093080180930701089590930201EB
:100B900080930101089590930401809303010895C7
:100BA00090930A01809309010895809179039091AF
:100BB0007A03019690937A038093790320910F0131
:100BC000309110018217930708F469C010927A03DC
:100BD00010927903E0910D01F0E0EF5FFE4F818903
:100BE00081110AC080910E01823008F458C08150F2
:100BF00080930E0110920D0180910D0190E0FC0197
:100C0000EF5FFE4F2189222309F449C04091010181
:100C100050910201209111014115510521F04130FF
:100C2000510599F024C0211122C0609105017091F5
:100C300006018E5E9E4F0E943A0590E001979091CA
:100C40000D01890F80930D0112C060910501709113
:100C5000060140910301509104014130510511F406
:100C6000720F01C0621B8E5E9E4F0E943A058091FA
:100C700011018F5F80931101082E000C990BE091F8
:100C80000901F0910A01218130E0281739073CF46D
:100C90001092110180910D018F5F80930D010C94D2
:100CA0003A02CF93DF93C1E0D1E09B878A870E940D
:100CB000560284E190E09F838E83DF91CF910C9464
:100CC000B50481110DC080917B03882329F0909198
:100CD0007C0381E0892702C080E090E08170089564
:100CE00080E0089581110BC080917B03811103C0C6
:100CF00080917C0302C080E090E08170089580E0E4
:100D00000895811103C080917B03089580E00895C8
:100D1000811105C090917B0381E08927089580E0CF
:100D20000895EBE7F3E08081818389B1881F8827EC
:100D3000881F8083089557985F980895811105C092
:100D4000662311F0429A0895429808953A9A429A79
:100D50000895CF93DF9300D01F92CDB7DEB7809177
:100D6000320190913301A091340189839A83AB833E
:100D70000E94130184EF91E00E94510685E391E007
:100D80000E94D0058CE00E94C0050E9490030E9442
:100D90009B060E94BD0084EF91E00E94DE0390E379
:100DA000B92E20E3E22E00E010E0C12CD12C0E94ED
:100DB000F3030E94D5050E942403CD2821F482E587
:100DC00093E00E94690083E00E94F202882341F0D0
:100DD0000115110519F00150110902C002E010E0DF
:100DE00081E00E94F202882341F00230110519F0DF
:100DF0000F5F1F4F02C000E010E084E00E94F2028B
:100E0000882369F0E1E0F0E0EC0FFD1FE00FF11F37
:100E1000E08061E080E00E949E060E94B5040E948E
:100E2000A100882359F00E94A300F82E82E5F8164D
:100E300031F080E5F81619F083E5F812FB2C0E94DA
:100E4000910680E00E946106882349F0E1E0F0E02D
:100E5000EC0FFD1FE00FF11F80810E94AB0080E3CB
:100E6000E816B1F0F816A1F0E1E0F0E0EC0FFD1F9C
:100E7000E00FF11F80810E94AB0060E080E00E94E3
:100E80009E066F2D8E2D0E948100C12CD12C03C097
:100E9000CC24C394D12CE1E0F0E0EC0FFD1FE00F77
:100EA000F11F80810E945900BF2C81CF002480FD5A
:100EB000060E660F11F08695D1F7802D0895002457
:100EC000552704C0080E591F880F991F009729F055
:100ED00076956795B8F37105B9F7802D952F08952C
:100EE000AA1BBB1B51E107C0AA1FBB1FA617B70750
:100EF00010F0A61BB70B881F991F5A95A9F780956C
:100F00009095BC01CD010895052E97FB1EF4009429
:100F10000E949B0757FD07D00E94A30707FC03D040
:100F20004EF40C949B0750954095309521953F4F7A
:100F30004F4F5F4F089590958095709561957F4FC5
:100F40008F4F9F4F0895A1E21A2EAA1BBB1BFD01D4
:100F50000DC0AA1FBB1FEE1FFF1FA217B307E40798
:100F6000F50720F0A21BB30BE40BF50B661F771FF0
:100F7000881F991F1A9469F76095709580959095D0
:100F80009B01AC01BD01CF010895FB01DC01415083
:100F9000504048F001900D920020C9F701C01D9209
:0C0FA00041505040E0F70895F894FFCF56
:100FAC000100000000000014000000000000000020
:100FBC000000000000000000000000000000000025
:100FCC000000000000000000000000000000000015
:100FDC000000525053010507205F0500000000007F
:100FEC00C6186380014A290000004A7DF59502C4A9
:100FFC0017471F01632222320626155193058608D6
:10100C000000008808210802822084880080545740
:10101C00090080904F0800000060880000800F00DD
:10102C00000000008C0100222202002EE63AA303ED
:10103C00C4104288032E4244C4072E4207A30388DF
:10104C00A9F411023F8407A3032E8617A3033F4282
:10105C004408012E4617A3032E460FA303C01860A5
:10106C000C00C0186088008888200802007CF00101
:10107C000082208888002E424400012E425BAB0384
:10108C0044C51F63042FC617E3032E8610A2032F3B
:10109C00C618E3033F8417C2073F841742002E860D
:1010AC001EA30731C61F63048E104288031042181A
:1010BC00A3033195515204218410C20771D71A63CE
:1010CC000471D61C63042EC618A3032FC617420046
:1010DC002EC65893052FC61763042E0607A3039F2D
:1010EC001042080131C618A30331C618150131C6C8
:1010FC005AAB02312AA26204312A4208011F222271
:10110C00C207278410C20120088220000E2184907F
:10111C00034445000000000000C0078220000000CE
:10112C000038E8A30721B419E30300B810A2031098
:10113C00DA1CA30700B8F883034C8A238400C0C7C9
:10114C00E8A10321B419630404184288030830840D
:10115C00920121A4324A02861042880300AC5A63E1
:10116C000400B419630400B818A30300BCF84200CF
:10117C0000D8EC210400B419420000B8E0E00342AE
:10118C001C21240300C418B30500C418150100C4A5
:10119C005AAB02004445540400C4E8A103007C444B
:1011AC00C407881041080284104208018210448848
:1011BC000000888A0000D00008000306080A0340DB
:1011CC000080031003800320004000200010000862
:1011DC000004000200010380034003200080031080
:1011EC004C4F5345520057494E4E455200445241C4
:1011FC0057005055534820555020544F20535441BC
:04120C005254000038
:00000001FF
