:100000000C943A000C9457000C9457000C94570031
:100010000C9457000C9457000C9457000C94570004
:100020000C9457000C9457000C9457000C945700F4
:100030000C9457000C9457000C9457000C945700E4
:100040000C9457000C9457000C9457000C945700D4
:100050000C9457000C9457000C9457000C945700C4
:100060000C9457000C9457000C9457000C945700B4
:100070000C94570011241FBECFEFD4E0DEBFCDBFDC
:1000800011E0A0E0B1E0EAE2F3E002C005900D92D9
:10009000A831B107D9F721E0A8E1B1E001C01D9274
:1000A000AA31B207E1F70E941B010C9493010C9452
:1000B0000000E1E6F0E080E880831082A89584B734
:1000C000877F84BFE0E6F0E08081886180831082D2
:1000D0000895BC011092800085E080938100109209
:1000E000820084EF91E00E943E0180E090E024E8ED
:1000F0003EE140E050E00E94250128EE33E040E080
:1001000050E00E9452013093190120931801089584
:1001100080911801909119012091840030918500FF
:1001200028173907C8F310928500109284000895AB
:100130009C01FC01FF2784A1832B84A395A1892F17
:10014000832B85A381E008958B010E94590081E0F3
:1001500090E00E946900CAE0D1E0899199910E94E3
:10016000980081E0C831D807C1F783E090E40E948D
:10017000980080E090E80E94980083E090E10E945F
:10018000980083E090E80E94980083E090E20E944B
:100190009800E02FF0E0EE0FFF1FE65FFE4FE080DB
:1001A000F180E701DD27A5960F2D0095888180233A
:1001B0008883E12FF0E0EE0FFF1FE050FF4FA0809B
:1001C000B1806501DD24F60185A19B2D90958923E1
:1001D00085A30E94880088818F298883F60185A1E4
:1001E0008B2985A31150E2CF762F682F842F089595
:1001F0001092800084E0809381001092850010921C
:100200008400089580918400909185000895AC0148
:1002100080918400909185009C01241B350B283E21
:100220003340B0F708952091840030918500820F0B
:10023000931F0C94070140E064E083E00E94F40007
:100240000E94A40080E090E00895EE27FF27AA27EF
:10025000BB2708C0A20FB31FE41FF51F220F331FD7
:10026000441F551F969587957795679598F370402D
:10027000A9F7009799F7BD01CF010895AA1BBB1BF1
:1002800051E107C0AA1FBB1FA617B70710F0A61B96
:10029000B70B881F991F5A95A9F780959095BC01B7
:1002A000CD010895052E97FB1EF400940E9469016C
:1002B00057FD07D00E94710107FC03D04EF40C9447
:1002C000690150954095309521953F4F4F4F5F4FB5
:1002D000089590958095709561957F4F8F4F9F4FB2
:1002E0000895A1E21A2EAA1BBB1BFD010DC0AA1F77
:1002F000BB1FEE1FFF1FA217B307E407F50720F08F
:10030000A21BB30BE40BF50B661F771F881F991F09
:100310001A9469F760957095809590959B01AC0152
:0A032000BD01CF010895F894FFCF4E
:10032A0003400080031003800320004000200010D7
:08033A000008000400020001AC
:00000001FF
