:100000000C943A000C9457000C9457000C94570031
:100010000C9457000C9457000C9457000C94570004
:100020000C9457000C9457000C9457000C945700F4
:100030000C9457000C9457000C9457000C945700E4
:100040000C9457000C9457000C9457000C945700D4
:100050000C9457000C9457000C9457000C945700C4
:100060000C9457000C9457000C9457000C945700B4
:100070000C94570011241FBECFEFD4E0DEBFCDBFDC
:1000800011E0A0E0B1E0EEE9F5E002C005900D92CC
:10009000A232B107D9F721E0A2E2B1E001C01D927E
:1000A000A033B207E1F70E9458020C94CD020C94E1
:1000B0000000E1E6F0E080E880831082A89584B734
:1000C000877F84BFE0E6F0E08081886180831082D2
:1000D0000895CF93DF93EC010E944F019E0140E011
:1000E00050E062E17AE780E090E00E948C02309379
:1000F000250120932401DF91CF9108958091220161
:10010000909123010E945E012091220130912301F0
:100110008091240190912501820F931F90932301D8
:100120008093220108959C01FC01FF2795A1832F54
:100130008095892385A308959C01FC01FF2784A154
:10014000832B84A395A1892F832B85A381E0089518
:10015000CF92DF92EF92FF921F93CF93DF93F62E11
:10016000172F0E94590084EF91E00E946900CAE0B5
:10017000D1E0899199910E949C0081E0C831D80713
:10018000C1F783E090E40E949C0080E090E80E9428
:100190009C0083E090E10E949C0083E090E80E9434
:1001A0009C0083E090E20E949C00CF2DD0E0CC0F19
:1001B000DD1FC65FDE4F1123F1F0E880F980C70133
:1001C0000E949300E12FF0E0EE0FFF1FE050FF4F81
:1001D000C080D180C6010E9493000E947E00F7017A
:1001E000FF2785A18F2985A3F601FF2785A18D29EA
:1001F00085A31150E0CFDF91CF911F91FF90EF9039
:10020000DF90CF9008950F931F93CF93DF93C82F64
:100210000AE011E0F801819191918F010E949C0008
:10022000F1E008311F07B1F783E090E40E949C00E1
:1002300080E090E80E949C0083E090E10E949C0096
:1002400083E090E80E949C0083E090E20E949C0082
:1002500083E090E20E949300D0E0FE01EE0FFF1FCA
:10026000E45FFE4F808191810E949300FE01EE0FBA
:10027000FF1FE65FFE4F808191810E949300CC0FAB
:10028000DD1FC85FDE4F88819981DF91CF911F917B
:100290000F910C949300762F682F842F089510925D
:1002A000800084E080938100109285001092840089
:1002B000089580918400909185000895AC0180910B
:1002C0008400909185009C01241B350B283E33400F
:1002D000B0F708952091840030918500820F931F1C
:1002E0000C945E01FC018081089584E00895FC0176
:1002F0009081923010F0915090830895FC0190818C
:10030000963010F09F5F908308956230710519F167
:1003100070F46130710559F5FC01FF2724A1392FD4
:100320003095922F932394A385A183231DC063301E
:10033000710541F064307105D1F4FC01FF2784A1FF
:10034000892B0FC0FC01FF2784A1892B84A385A1E1
:100350009095892309C0FC01FF2784A1292F2095AE
:10036000822384A385A1892B85A381E0089580E061
:100370000895E82FF0E0EE0FFF1FEA5DFE4F808149
:10038000882321F0918181E0892702C080E090E0FC
:1003900081700895E82FF0E0EE0FFF1FEA5DFE4F39
:1003A0008081811102C0818102C080E090E0817073
:1003B0000895E82FF0E0EE0FFF1FEA5DFE4F808109
:1003C0000895E82FF0E0EE0FFF1FEA5DFE4F9081E9
:1003D00081E0892708957F928F929F92AF92BF927A
:1003E000CF92DF92EF92FF920F931F93CF93DF9301
:1003F000C6E2D1E058E1C52E51E0D52E66E0762E5A
:1004000088818983F601019111916F015801BB2404
:10041000F50124A1E12EFF2485A190E08E219F21EA
:1004200030E02E213F21232B31F0892B51F433E092
:10043000832E912C0DC0892B41F488248394912C18
:1004400007C094E0892E912C03C082E0882E912C65
:1004500064E070E0C8010E94850162E070E0C801BC
:100460000E948501872D8A95F1F7F50183A190E01F
:10047000E822F92281E0EF2809F080E08883B401C6
:10048000C8010E9485012296F1E0C033DF0709F020
:10049000B7CFDF91CF911F910F91FF90EF90DF9039
:1004A000CF90BF90AF909F908F907F9008950895C8
:1004B000CF93DF931F92CDB7DEB70E9459000E9401
:1004C000570284EF91E00E94690040E063E083E01E
:1004D0000E944B010E94A8000E94750189830E941E
:1004E00003010E947E000E94EB0180E00E94B9019E
:1004F000882339F0CE0101960E947E0189810E94F5
:10050000030182E00E94B901882359F3CE010196CC
:100510000E9477018981E3CF052E97FB1EF400949A
:100520000E94A30257FD07D00E94AB0207FC03D034
:100530004EF40C94A30250954095309521953F4F71
:100540004F4F5F4F089590958095709561957F4FBF
:100550008F4F9F4F0895A1E21A2EAA1BBB1BFD01CE
:100560000DC0AA1FBB1FEE1FFF1FA217B307E40792
:10057000F50720F0A21BB30BE40BF50B661F771FEA
:10058000881F991F1A9469F76095709580959095CA
:0E0590009B01AC01BD01CF010895F894FFCF8F
:10059E000340008003100380032000400020001061
:1005AE0000080004000200010380034003200080C5
:0205BE00031028
:00000001FF
