:100000000C943A000C9457000C9457000C94570031
:100010000C9457000C9457000C9457000C94570004
:100020000C9457000C9457000C9457000C945700F4
:100030000C9457000C9457000C9457000C945700E4
:100040000C9457000C9457000C9457000C945700D4
:100050000C9457000C9457000C9457000C945700C4
:100060000C9457000C9457000C9457000C945700B4
:100070000C94570011241FBECFEFD4E0DEBFCDBFDC
:1000800013E0A0E0B1E0ECEFFDE002C005900D92BE
:10009000AA35B107D9F723E0AAE5B3E001C01D9264
:1000A000A137B207E1F70E9429060C94FC060C94D4
:1000B0000000CF93DF9300D0CDB7DEB789831A82DB
:1000C000CE0101960E9479050F900F90DF91CF919C
:1000D00008950C94A4010C94C5010C94AA010C94ED
:1000E000B0010C94B6010E94B6010E94B0018823B1
:1000F000E1F38CE291E00197F1F70E94A4018111F4
:100100000C946B0008950C94CC01CF93DF9300D036
:100110001F92CDB7DEB78091130390911403A09185
:10012000150389839A83AB83509A589A0E9477016A
:100130008FE690E00E940E0181E090E00E9466014F
:1001400061E070E081E090E00E9452010E943E0177
:10015000CE0101960E948C010F900F900F90DF91BD
:10016000CF910895CF93DF93DC01FB0160E070E055
:1001700080E0C1E0D0E08417C9F09191BE01092E62
:1001800002C0660F771F0A94E2F76F5F7F4F769584
:1001900067956A0F7B1F02C0769567959A95E2F77F
:1001A0006F3F710519F010F08F5FE5CFF9016083A3
:1001B000DF91CF910895E1E6F0E080E8808310823E
:1001C000A89584B7877F84BFE0E6F0E080818861EE
:1001D0008083108208951092800084E080938100D3
:1001E000109285001092840008958091840090916F
:1001F00085000895AC0180918400909185009C0158
:10020000241B350B283E3340B0F70895209184001D
:1002100030918500820F931F0C94FA00CF93DF93E7
:100220001F92CDB7DEB79E012F5F3F4F45E066E1DD
:1002300073E00E94B20091E0980F909300019981C1
:10024000915097BD18BC95B5977039F095B5209130
:1002500000012770987F922B95BD298130E0E82F0F
:10026000F0E0EA5EFC4FC901008002C0880F991FD0
:100270000A94E2F70F90DF91CF91089585B3897FBB
:1002800085BB85B5909100019770887F892B85BDCE
:10029000089585B5887F85BD089585B382FB88273D
:1002A00080F90895009719F0019741F0089584B5F9
:1002B0008F736295660F660F607C05C084B56370AE
:1002C0006295607F8F7C682B64BD0895009741F034
:1002D000019759F484B58E7F84BD84B5826002C0D5
:1002E00084B58C7F84BD81E0089580E0089514BCBE
:1002F00015BC16BC18BC84B58E7F84BD84B58260E5
:1003000084BD81E008959C01215031093093CD00D6
:1003100081508093CC000895CF93DF93EC018881C6
:1003200099810E9483018A819BEF980F943008F095
:1003300088E098E19093C9008550880F8093CA00A7
:1003400081E0DF91CF9108958091C800881F8827B0
:10035000881F08958091C80085FB882780F908953B
:100360008091C80086FB882780F90895CF93C82F15
:100370000E94AA018823E1F38091C80080648093E1
:10038000C800C093CE00CF9108958091C80087FF28
:10039000FCCF8091CE000895CF93DF93EC0189913B
:1003A000882319F00E94B601FACFDF91CF9108950A
:1003B000853098F4673088F421E030E001C0220FE6
:1003C0006A95EAF7E82FF0E0E55AFC4F922F9095F6
:1003D000808189234111822B80830895853080F4A8
:1003E000673070F421E030E001C0220F6A95EAF72F
:1003F000E82FF0E0E55AFC4F8081282381E009F4E2
:1004000080E0089560915A03E62FF0E0E55AFC4F32
:1004100080810E94500280915A038F5F853018F4CA
:1004200080935A03089510925A030895EBE5F3E080
:100430001082118212821382148208950E942E0269
:100440000C9416029C01FC01FF2784A1832B84A33A
:1004500095A1892F832B85A381E00895CF93DF9306
:10046000C5E2D3E0899199910E94220283E0C333CF
:10047000D807C1F783E090E40E94220280E090E870
:100480000E94220283E090E10E94220283E090E831
:100490000E94220283E090E2DF91CF910C9422022D
:1004A000E0916003F0E0EE0FFF1FE55EFC4F20815E
:1004B0003181F901FF2795A1932B95A3E5E2F3E0A4
:1004C00097E020813181D901BB2795962C91959792
:1004D00080FF03C03095232301C0232B95962C93D6
:1004E0008695915032969111ECCFE62FF0E0EE0F09
:1004F000FF1FE55EFC4F80819181FC01FF2785A1F4
:100500009095892385A360936003089562307105F7
:1005100019F170F46130710559F5FC01FF2724A130
:10052000392F3095922F932394A385A183231DC047
:100530006330710541F064307105D1F4FC01FF278F
:1005400084A1892B0FC0FC01FF2784A1892B84A3E0
:1005500085A19095892309C0FC01FF2784A1292F3B
:100560002095822384A385A1892B85A381E008950A
:1005700080E00895E82FF0E0EE0FFF1FEF59FC4FE9
:100580008081882321F0918181E0892702C080E069
:1005900090E081700895E82FF0E0EE0FFF1FEF5913
:1005A000FC4F8081811102C0818102C080E090E017
:1005B00081700895E82FF0E0EE0FFF1FEF59FC4F18
:1005C00080810895E82FF0E0EE0FFF1FEF59FC4FF8
:1005D000908181E0892708957F928F929F92AF92B8
:1005E000BF92CF92DF92EF92FF920F931F93CF9320
:1005F000DF93C1E6D3E053E3C52E53E0D52E66E08A
:10060000762E88818983F601019111916F0158013D
:10061000BB24F50124A1E12EFF2485A190E08E21C9
:100620009F2130E02E213F21232B31F0892B51F4E3
:1006300033E0832E912C0DC0892B41F488248394C0
:10064000912C07C094E0892E912C03C082E0882E63
:10065000912C64E070E0C8010E94860262E070E0C4
:10066000C8010E948602872D8A95F1F7F50183A1C2
:1006700090E0E822F92281E0EF2809F080E0888309
:10068000B401C8010E9486022296F3E0CB36DF0750
:1006900009F0B7CFDF91CF911F910F91FF90EF90AD
:1006A000DF90CF90BF90AF909F908F907F900895F4
:1006B0000895009789F0FC012381621B67FD09C042
:1006C000062E000C770B248130E081E0621773075F
:1006D0000CF080E08170089580E00895CF93DF935F
:1006E000FC01892B79F18181481760F592812917E6
:1006F00048F59381A62FA91BA7FD24C00A2E000C44
:10070000BB0BC481D0E0AC17BD07E4F4622F0E949C
:100710007E06480F858190E0BD010E9487060696FF
:10072000242F269526952695E80FF91FE20FF11D37
:10073000808190E0477002C0959587954A95E2F7D1
:10074000817001C080E0DF91CF910895CF93DF9356
:10075000EC010E94EB009E0140E050E062E17AE78C
:1007600080E090E00E94AC0630936E0320936D030E
:10077000DF91CF91089580916B0390916C030E945B
:10078000FA0020916B0330916C0380916D0390917E
:100790006E03820F931F90936C0380936B030895F5
:1007A000692F0C94EE0141E0611101C040E0692F16
:1007B0000C94D8010C94D3035F926F927F928F9226
:1007C0009F92AF92BF92CF92DF92EF92FF920F93E0
:1007D0001F93CF93DF93562E872E942E5C01E62E27
:1007E000F72EC62F660FDD0BC81BD10987FDD395E9
:1007F000072F770F110B091B110997FD1395D7FFD1
:1008000003C077247A9402C07724739417FF03C03F
:1008100066246A9402C066246394D7FF03C0D1950E
:10082000C195D10917FF03C0119501951109C01792
:10083000D107A4F06E01D594C794F92EA51411F137
:10084000692D8A2D9F2D0E94D303C01AD10AD7FE8D
:1008500003C0CC0EDD1EF60CA70CF0CF6801D594BA
:10086000C794E82EB81471F0692D8E2D9B2D0E942F
:10087000D303CC1ADD0AD7FE03C0C00ED11EE70C8D
:10088000B60CF0CF692DC701DF91CF911F910F9169
:10089000FF90EF90DF90CF90BF90AF909F908F90A0
:1008A0007F906F905F900C94D303FF920F931F93F0
:1008B000CF93DF93D82FF92E162FC72F042F792F20
:1008C0000E94DC03402F6D2F7C2F8D2F9F2D0E94C7
:1008D000DC03402F612F7C2F812F9F2D0E94DC0392
:1008E000402F612F7C2F8D2F9C2F0E94DC03DF91E6
:1008F000CF911F910F91FF9008950E941602E1E0A1
:10090000F1E0118A14860895DF92EF92FF920F931F
:100910001F93CF93DF93D82E7B01162F0F2D80913D
:10092000030190910401D0E0019799F50F2D0D1B63
:10093000E0910901F0910A018181C0E0D817B8F473
:100940008091090190910A01FC012281C21768F48B
:100950002C2F4D2F6D2D0E946E03682F8E2D8C0F26
:10096000902F0E94D303CF5FEBCFDF5FDFCFE0910B
:100970000901F0910A018281C81740F460E08E2DD0
:100980008C0F902F0E94D303CF5FF1CF015030C066
:10099000DF5F1E2D1D0FE0910901F0910A01818199
:1009A000C0E0D817A8F48091090190910A01FC01D8
:1009B0002281C21768F72C2F4D2F6D2D0E946E03D8
:1009C000682F812F9F2D9C0F0E94D303CF5FEBCF09
:1009D000E0910901F0910A018281C81740F460E0BA
:1009E000812F9F2D9C0F0E94D303CF5FF1CF1F5FFC
:1009F000812F902FDF91CF911F910F91FF90EF905A
:100A0000DF9008950F931F93CF938C01C0E0F801FE
:100A100081918F01882341F00E948404BC01CF5F43
:100A2000853014F477FFF3CF8C2FCF911F910F9166
:100A300008950F931F93CF93DF9310920D0140936E
:100A40000E01109211010091090110910A01011586
:100A5000110509F449C09B01EC01F8018181609105
:100A600007017091080190E00E948706BC01809107
:100A70000B0190910C010E949806CB016AE070E096
:100A80000E9487069093100180930F013093060116
:100A90002093050140E250E0BE0182E191E00E9416
:100AA000ED0680910101909102010197E9F4FE01A8
:100AB00001900020E9F73197BF016C1B7D0BF80115
:100AC00081818F5F0E947E068150209103013091C9
:100AD00004012130310511F095E001C097E098172D
:100AE00018F48EEF80931101DF91CF911F910F9138
:100AF000089520910301309104012130310511F056
:100B000070E001C076E04FEF60E00E9419050895A3
:100B100090E090930801809307010895909302015B
:100B20008093010108959093040180930301089537
:100B300090930A0180930901089580916F03909129
:100B4000700301969093700380936F0320910F01BF
:100B5000309110018217930708F469C01092700356
:100B600010926F03E0910D01F0E0EF5FFE4F81897D
:100B700081110AC080910E01823008F458C0815062
:100B800080930E0110920D0180910D0190E0FC0107
:100B9000EF5FFE4F2189222309F449C040910101F2
:100BA00050910201209111014115510521F0413070
:100BB000510599F024C0211122C060910501709166
:100BC00006018E5E9E4F0E94020590E00197909173
:100BD0000D01890F80930D0112C060910501709184
:100BE000060140910301509104014130510511F477
:100BF000720F01C0621B8E5E9E4F0E9402058091A3
:100C000011018F5F80931101082E000C990BE09168
:100C10000901F0910A01218130E0281739073CF4DD
:100C20001092110180910D018F5F80930D010C9442
:100C30000202CF93DF93C1E0D1E09B878A870E94B5
:100C40001E0284E190E09F838E83DF91CF910C940C
:100C50007D040E94DB0084EF91E00E94190682E38C
:100C600091E00E9498058AE00E94880581E090E06A
:100C70000E948E058DE393E00E9479050E9458033F
:100C80000E94850084EF91E00E94A603C1E480E009
:100C90000E94BA02882321F00E94BB030E949D0596
:100CA0000E94BB030E949D050E94EC0281E00E940D
:100CB000BA028111C2E58C2F0E94590082E00E9485
:100CC000BA028111C0E58C2F0E94590083E00E9476
:100CD000BA028111C3E58C2F0E94590084E00E9462
:100CE000BA02882319F08C2F0E9473000E946900B9
:100CF000882369F20E946B00C82FC9CF002480FDB1
:100D0000060E660F11F08695D1F7802D0895002408
:100D1000552704C0080E591F880F991F009729F006
:100D200076956795B8F37105B9F7802D952F0895DD
:100D3000AA1BBB1B51E107C0AA1FBB1FA617B70701
:100D400010F0A61BB70B881F991F5A95A9F780951D
:100D50009095BC01CD010895052E97FB1EF40094DB
:100D60000E94C30657FD07D00E94CB0607FC03D0A4
:100D70004EF40C94C30650954095309521953F4F05
:100D80004F4F5F4F089590958095709561957F4F77
:100D90008F4F9F4F0895A1E21A2EAA1BBB1BFD0186
:100DA0000DC0AA1FBB1FEE1FFF1FA217B307E4074A
:100DB000F50720F0A21BB30BE40BF50B661F771FA2
:100DC000881F991F1A9469F7609570958095909582
:100DD0009B01AC01BD01CF010895FB01DC01415035
:100DE000504048F001900D920020C9F701C01D92BB
:0C0DF00041505040E0F70895F894FFCF08
:100DFC0001000000000000140000000000000000D2
:100E0C0000000000000000000000000000000000D6
:100E1C0000000000000000000000000000000000C6
:100E2C000000010507205F050000000000C61863E4
:100E3C0080014A290000004A7DF59502C417471F1E
:100E4C000163222232062615519305860800000004
:100E5C008808210802822084880080545709008069
:100E6C00904F0800000060880000800F0000000018
:100E7C00008C0100222202002EE63AA303C4104289
:100E8C0088032E4244C4072E4207A30388A9F411F9
:100E9C00023F8407A3032E8617A3033F4244080195
:100EAC002E4617A3032E460FA303C018600C00C0D8
:100EBC00186088008888200802007CF001008220DD
:100ECC008888002E424400012E425BAB0344C51FB0
:100EDC0063042FC617E3032E8610A2032FC618E354
:100EEC00033F8417C2073F841742002E861EA307B8
:100EFC0031C61F63048E10428803104218A30331BD
:100F0C0095515204218410C20771D71A630471D60B
:100F1C001C63042EC618A3032FC61742002EC658F6
:100F2C0093052FC61763042E0607A3039F104208D0
:100F3C000131C618A30331C618150131C65AAB02CC
:100F4C00312AA26204312A4208011F2222C2072739
:100F5C008410C20120088220000E21849003444595
:100F6C00000000000000C00782200000000038E8EC
:100F7C00A30721B419E30300B810A20310DA1CA3D1
:100F8C000700B8F883034C8A238400C0C7E8A10388
:100F9C0021B4196304041842880308308492012197
:100FAC00A4324A02861042880300AC5A630400B48F
:100FBC0019630400B818A30300BCF8420000D8EC75
:100FCC00210400B419420000B8E0E003421C2124C3
:100FDC000300C418B30500C418150100C45AAB02B1
:100FEC00004445540400C4E8A103007C44C40788B1
:100FFC0010410802841042080182104488000088C5
:10100C008A0000D00008000306080A034000800391
:10101C001003800320004000200010000800040092
:10102C000200010380034003200080031053454C51
:10103C004543543A20526F636B20506170657220A7
:0A104C0053636973736F7273000041
:00000001FF
